{
  "_format": "hh-sol-artifact-1",
  "contractName": "IDOLS",
  "sourceName": "contracts/idolsToken.sol",
  "abi": [
    {
      "inputs": [],
      "stateMutability": "nonpayable",
      "type": "constructor"
    },
    {
      "anonymous": false,
      "inputs": [
        {
          "indexed": true,
          "internalType": "address",
          "name": "owner",
          "type": "address"
        },
        {
          "indexed": true,
          "internalType": "address",
          "name": "spender",
          "type": "address"
        },
        {
          "indexed": false,
          "internalType": "uint256",
          "name": "value",
          "type": "uint256"
        }
      ],
      "name": "Approval",
      "type": "event"
    },
    {
      "anonymous": false,
      "inputs": [
        {
          "indexed": true,
          "internalType": "address",
          "name": "previousOwner",
          "type": "address"
        },
        {
          "indexed": true,
          "internalType": "address",
          "name": "newOwner",
          "type": "address"
        }
      ],
      "name": "OwnershipTransferred",
      "type": "event"
    },
    {
      "anonymous": false,
      "inputs": [
        {
          "indexed": false,
          "internalType": "address",
          "name": "account",
          "type": "address"
        }
      ],
      "name": "Paused",
      "type": "event"
    },
    {
      "anonymous": false,
      "inputs": [
        {
          "indexed": true,
          "internalType": "address",
          "name": "from",
          "type": "address"
        },
        {
          "indexed": true,
          "internalType": "address",
          "name": "to",
          "type": "address"
        },
        {
          "indexed": false,
          "internalType": "uint256",
          "name": "value",
          "type": "uint256"
        }
      ],
      "name": "Transfer",
      "type": "event"
    },
    {
      "anonymous": false,
      "inputs": [
        {
          "indexed": false,
          "internalType": "address",
          "name": "account",
          "type": "address"
        }
      ],
      "name": "Unpaused",
      "type": "event"
    },
    {
      "inputs": [],
      "name": "DOMAIN_SEPARATOR",
      "outputs": [
        {
          "internalType": "bytes32",
          "name": "",
          "type": "bytes32"
        }
      ],
      "stateMutability": "view",
      "type": "function"
    },
    {
      "inputs": [
        {
          "internalType": "address",
          "name": "owner",
          "type": "address"
        },
        {
          "internalType": "address",
          "name": "spender",
          "type": "address"
        }
      ],
      "name": "allowance",
      "outputs": [
        {
          "internalType": "uint256",
          "name": "",
          "type": "uint256"
        }
      ],
      "stateMutability": "view",
      "type": "function"
    },
    {
      "inputs": [
        {
          "internalType": "address",
          "name": "spender",
          "type": "address"
        },
        {
          "internalType": "uint256",
          "name": "amount",
          "type": "uint256"
        }
      ],
      "name": "approve",
      "outputs": [
        {
          "internalType": "bool",
          "name": "",
          "type": "bool"
        }
      ],
      "stateMutability": "nonpayable",
      "type": "function"
    },
    {
      "inputs": [
        {
          "internalType": "address",
          "name": "account",
          "type": "address"
        }
      ],
      "name": "balanceOf",
      "outputs": [
        {
          "internalType": "uint256",
          "name": "",
          "type": "uint256"
        }
      ],
      "stateMutability": "view",
      "type": "function"
    },
    {
      "inputs": [
        {
          "internalType": "uint256",
          "name": "amount",
          "type": "uint256"
        }
      ],
      "name": "burn",
      "outputs": [],
      "stateMutability": "nonpayable",
      "type": "function"
    },
    {
      "inputs": [
        {
          "internalType": "address",
          "name": "account",
          "type": "address"
        },
        {
          "internalType": "uint256",
          "name": "amount",
          "type": "uint256"
        }
      ],
      "name": "burnFrom",
      "outputs": [],
      "stateMutability": "nonpayable",
      "type": "function"
    },
    {
      "inputs": [],
      "name": "decimals",
      "outputs": [
        {
          "internalType": "uint8",
          "name": "",
          "type": "uint8"
        }
      ],
      "stateMutability": "view",
      "type": "function"
    },
    {
      "inputs": [
        {
          "internalType": "address",
          "name": "spender",
          "type": "address"
        },
        {
          "internalType": "uint256",
          "name": "subtractedValue",
          "type": "uint256"
        }
      ],
      "name": "decreaseAllowance",
      "outputs": [
        {
          "internalType": "bool",
          "name": "",
          "type": "bool"
        }
      ],
      "stateMutability": "nonpayable",
      "type": "function"
    },
    {
      "inputs": [
        {
          "internalType": "address",
          "name": "spender",
          "type": "address"
        },
        {
          "internalType": "uint256",
          "name": "addedValue",
          "type": "uint256"
        }
      ],
      "name": "increaseAllowance",
      "outputs": [
        {
          "internalType": "bool",
          "name": "",
          "type": "bool"
        }
      ],
      "stateMutability": "nonpayable",
      "type": "function"
    },
    {
      "inputs": [],
      "name": "name",
      "outputs": [
        {
          "internalType": "string",
          "name": "",
          "type": "string"
        }
      ],
      "stateMutability": "view",
      "type": "function"
    },
    {
      "inputs": [
        {
          "internalType": "address",
          "name": "owner",
          "type": "address"
        }
      ],
      "name": "nonces",
      "outputs": [
        {
          "internalType": "uint256",
          "name": "",
          "type": "uint256"
        }
      ],
      "stateMutability": "view",
      "type": "function"
    },
    {
      "inputs": [],
      "name": "owner",
      "outputs": [
        {
          "internalType": "address",
          "name": "",
          "type": "address"
        }
      ],
      "stateMutability": "view",
      "type": "function"
    },
    {
      "inputs": [],
      "name": "pause",
      "outputs": [],
      "stateMutability": "nonpayable",
      "type": "function"
    },
    {
      "inputs": [],
      "name": "paused",
      "outputs": [
        {
          "internalType": "bool",
          "name": "",
          "type": "bool"
        }
      ],
      "stateMutability": "view",
      "type": "function"
    },
    {
      "inputs": [
        {
          "internalType": "address",
          "name": "owner",
          "type": "address"
        },
        {
          "internalType": "address",
          "name": "spender",
          "type": "address"
        },
        {
          "internalType": "uint256",
          "name": "value",
          "type": "uint256"
        },
        {
          "internalType": "uint256",
          "name": "deadline",
          "type": "uint256"
        },
        {
          "internalType": "uint8",
          "name": "v",
          "type": "uint8"
        },
        {
          "internalType": "bytes32",
          "name": "r",
          "type": "bytes32"
        },
        {
          "internalType": "bytes32",
          "name": "s",
          "type": "bytes32"
        }
      ],
      "name": "permit",
      "outputs": [],
      "stateMutability": "nonpayable",
      "type": "function"
    },
    {
      "inputs": [],
      "name": "renounceOwnership",
      "outputs": [],
      "stateMutability": "nonpayable",
      "type": "function"
    },
    {
      "inputs": [],
      "name": "symbol",
      "outputs": [
        {
          "internalType": "string",
          "name": "",
          "type": "string"
        }
      ],
      "stateMutability": "view",
      "type": "function"
    },
    {
      "inputs": [],
      "name": "totalSupply",
      "outputs": [
        {
          "internalType": "uint256",
          "name": "",
          "type": "uint256"
        }
      ],
      "stateMutability": "view",
      "type": "function"
    },
    {
      "inputs": [
        {
          "internalType": "address",
          "name": "to",
          "type": "address"
        },
        {
          "internalType": "uint256",
          "name": "amount",
          "type": "uint256"
        }
      ],
      "name": "transfer",
      "outputs": [
        {
          "internalType": "bool",
          "name": "",
          "type": "bool"
        }
      ],
      "stateMutability": "nonpayable",
      "type": "function"
    },
    {
      "inputs": [
        {
          "internalType": "address",
          "name": "from",
          "type": "address"
        },
        {
          "internalType": "address",
          "name": "to",
          "type": "address"
        },
        {
          "internalType": "uint256",
          "name": "amount",
          "type": "uint256"
        }
      ],
      "name": "transferFrom",
      "outputs": [
        {
          "internalType": "bool",
          "name": "",
          "type": "bool"
        }
      ],
      "stateMutability": "nonpayable",
      "type": "function"
    },
    {
      "inputs": [
        {
          "internalType": "address",
          "name": "newOwner",
          "type": "address"
        }
      ],
      "name": "transferOwnership",
      "outputs": [],
      "stateMutability": "nonpayable",
      "type": "function"
    },
    {
      "inputs": [],
      "name": "unpause",
      "outputs": [],
      "stateMutability": "nonpayable",
      "type": "function"
    }
  ],
  "bytecode": "0x6101406040523480156200001257600080fd5b506040518060400160405280600581526020017f49444f4c53000000000000000000000000000000000000000000000000000000815250806040518060400160405280600181526020017f31000000000000000000000000000000000000000000000000000000000000008152506040518060400160405280600581526020017f49444f4c530000000000000000000000000000000000000000000000000000008152506040518060400160405280600581526020017f49444f4c530000000000000000000000000000000000000000000000000000008152508160039081620000fd9190620007e3565b5080600490816200010f9190620007e3565b5050506000600560006101000a81548160ff0219169083151502179055506200014d620001416200024660201b60201c565b6200024e60201b60201c565b60008280519060200120905060008280519060200120905060007f8b73c3c69bb8fe3d512ecc4cf759cc79239f7b179b0ffacaa9a75d522b39400f90508260e081815250508161010081815250504660a08181525050620001b68184846200031460201b60201c565b608081815250503073ffffffffffffffffffffffffffffffffffffffff1660c08173ffffffffffffffffffffffffffffffffffffffff16815250508061012081815250505050505050506200024033620002156200035060201b60201c565b600a62000223919062000a5a565b630c84588062000234919062000aab565b6200035960201b60201c565b62000d11565b600033905090565b6000600560019054906101000a900473ffffffffffffffffffffffffffffffffffffffff16905081600560016101000a81548173ffffffffffffffffffffffffffffffffffffffff021916908373ffffffffffffffffffffffffffffffffffffffff1602179055508173ffffffffffffffffffffffffffffffffffffffff168173ffffffffffffffffffffffffffffffffffffffff167f8be0079c531659141344cd1fd0a4f28419497f9722a3daafe3b4186f6b6457e060405160405180910390a35050565b600083838346306040516020016200033195949392919062000b67565b6040516020818303038152906040528051906020012090509392505050565b60006012905090565b600073ffffffffffffffffffffffffffffffffffffffff168273ffffffffffffffffffffffffffffffffffffffff1603620003cb576040517f08c379a0000000000000000000000000000000000000000000000000000000008152600401620003c29062000c25565b60405180910390fd5b620003df60008383620004c660201b60201c565b8060026000828254620003f3919062000c47565b92505081905550806000808473ffffffffffffffffffffffffffffffffffffffff1673ffffffffffffffffffffffffffffffffffffffff168152602001908152602001600020600082825401925050819055508173ffffffffffffffffffffffffffffffffffffffff16600073ffffffffffffffffffffffffffffffffffffffff167fddf252ad1be2c89b69c2b068fc378daa952ba7f163c4a11628f55a4df523b3ef83604051620004a6919062000c82565b60405180910390a3620004c260008383620004f360201b60201c565b5050565b620004d6620004f860201b60201c565b620004ee8383836200054d60201b62000a211760201c565b505050565b505050565b620005086200055260201b60201c565b156200054b576040517f08c379a0000000000000000000000000000000000000000000000000000000008152600401620005429062000cef565b60405180910390fd5b565b505050565b6000600560009054906101000a900460ff16905090565b600081519050919050565b7f4e487b7100000000000000000000000000000000000000000000000000000000600052604160045260246000fd5b7f4e487b7100000000000000000000000000000000000000000000000000000000600052602260045260246000fd5b60006002820490506001821680620005eb57607f821691505b602082108103620006015762000600620005a3565b5b50919050565b60008190508160005260206000209050919050565b60006020601f8301049050919050565b600082821b905092915050565b6000600883026200066b7fffffffffffffffffffffffffffffffffffffffffffffffffffffffffffffffff826200062c565b6200067786836200062c565b95508019841693508086168417925050509392505050565b6000819050919050565b6000819050919050565b6000620006c4620006be620006b8846200068f565b62000699565b6200068f565b9050919050565b6000819050919050565b620006e083620006a3565b620006f8620006ef82620006cb565b84845462000639565b825550505050565b600090565b6200070f62000700565b6200071c818484620006d5565b505050565b5b8181101562000744576200073860008262000705565b60018101905062000722565b5050565b601f82111562000793576200075d8162000607565b62000768846200061c565b8101602085101562000778578190505b6200079062000787856200061c565b83018262000721565b50505b505050565b600082821c905092915050565b6000620007b86000198460080262000798565b1980831691505092915050565b6000620007d38383620007a5565b9150826002028217905092915050565b620007ee8262000569565b67ffffffffffffffff8111156200080a576200080962000574565b5b620008168254620005d2565b6200082382828562000748565b600060209050601f8311600181146200085b576000841562000846578287015190505b620008528582620007c5565b865550620008c2565b601f1984166200086b8662000607565b60005b8281101562000895578489015182556001820191506020850194506020810190506200086e565b86831015620008b55784890151620008b1601f891682620007a5565b8355505b6001600288020188555050505b505050505050565b7f4e487b7100000000000000000000000000000000000000000000000000000000600052601160045260246000fd5b60008160011c9050919050565b6000808291508390505b6001851115620009585780860481111562000930576200092f620008ca565b5b6001851615620009405780820291505b80810290506200095085620008f9565b945062000910565b94509492505050565b60008262000973576001905062000a46565b8162000983576000905062000a46565b81600181146200099c5760028114620009a757620009dd565b600191505062000a46565b60ff841115620009bc57620009bb620008ca565b5b8360020a915084821115620009d657620009d5620008ca565b5b5062000a46565b5060208310610133831016604e8410600b841016171562000a175782820a90508381111562000a115762000a10620008ca565b5b62000a46565b62000a26848484600162000906565b9250905081840481111562000a405762000a3f620008ca565b5b81810290505b9392505050565b600060ff82169050919050565b600062000a67826200068f565b915062000a748362000a4d565b925062000aa37fffffffffffffffffffffffffffffffffffffffffffffffffffffffffffffffff848462000961565b905092915050565b600062000ab8826200068f565b915062000ac5836200068f565b925082820262000ad5816200068f565b9150828204841483151762000aef5762000aee620008ca565b5b5092915050565b6000819050919050565b62000b0b8162000af6565b82525050565b62000b1c816200068f565b82525050565b600073ffffffffffffffffffffffffffffffffffffffff82169050919050565b600062000b4f8262000b22565b9050919050565b62000b618162000b42565b82525050565b600060a08201905062000b7e600083018862000b00565b62000b8d602083018762000b00565b62000b9c604083018662000b00565b62000bab606083018562000b11565b62000bba608083018462000b56565b9695505050505050565b600082825260208201905092915050565b7f45524332303a206d696e7420746f20746865207a65726f206164647265737300600082015250565b600062000c0d601f8362000bc4565b915062000c1a8262000bd5565b602082019050919050565b6000602082019050818103600083015262000c408162000bfe565b9050919050565b600062000c54826200068f565b915062000c61836200068f565b925082820190508082111562000c7c5762000c7b620008ca565b5b92915050565b600060208201905062000c99600083018462000b11565b92915050565b7f5061757361626c653a2070617573656400000000000000000000000000000000600082015250565b600062000cd760108362000bc4565b915062000ce48262000c9f565b602082019050919050565b6000602082019050818103600083015262000d0a8162000cc8565b9050919050565b60805160a05160c05160e051610100516101205161286162000d616000396000610fa701526000610fe901526000610fc801526000610efd01526000610f5301526000610f7c01526128616000f3fe608060405234801561001057600080fd5b50600436106101425760003560e01c8063715018a6116100b857806395d89b411161007c57806395d89b4114610341578063a457c2d71461035f578063a9059cbb1461038f578063d505accf146103bf578063dd62ed3e146103db578063f2fde38b1461040b57610142565b8063715018a6146102c357806379cc6790146102cd5780637ecebe00146102e95780638456cb59146103195780638da5cb5b1461032357610142565b80633644e5151161010a5780633644e51514610201578063395093511461021f5780633f4ba83a1461024f57806342966c68146102595780635c975abb1461027557806370a082311461029357610142565b806306fdde0314610147578063095ea7b31461016557806318160ddd1461019557806323b872dd146101b3578063313ce567146101e3575b600080fd5b61014f610427565b60405161015c91906118a6565b60405180910390f35b61017f600480360381019061017a9190611961565b6104b9565b60405161018c91906119bc565b60405180910390f35b61019d6104dc565b6040516101aa91906119e6565b60405180910390f35b6101cd60048036038101906101c89190611a01565b6104e6565b6040516101da91906119bc565b60405180910390f35b6101eb610515565b6040516101f89190611a70565b60405180910390f35b61020961051e565b6040516102169190611aa4565b60405180910390f35b61023960048036038101906102349190611961565b61052d565b60405161024691906119bc565b60405180910390f35b610257610564565b005b610273600480360381019061026e9190611abf565b610576565b005b61027d61058a565b60405161028a91906119bc565b60405180910390f35b6102ad60048036038101906102a89190611aec565b6105a1565b6040516102ba91906119e6565b60405180910390f35b6102cb6105e9565b005b6102e760048036038101906102e29190611961565b6105fd565b005b61030360048036038101906102fe9190611aec565b61061d565b60405161031091906119e6565b60405180910390f35b61032161066d565b005b61032b61067f565b6040516103389190611b28565b60405180910390f35b6103496106a9565b60405161035691906118a6565b60405180910390f35b61037960048036038101906103749190611961565b61073b565b60405161038691906119bc565b60405180910390f35b6103a960048036038101906103a49190611961565b6107b2565b6040516103b691906119bc565b60405180910390f35b6103d960048036038101906103d49190611b9b565b6107d5565b005b6103f560048036038101906103f09190611c3d565b610917565b60405161040291906119e6565b60405180910390f35b61042560048036038101906104209190611aec565b61099e565b005b60606003805461043690611cac565b80601f016020809104026020016040519081016040528092919081815260200182805461046290611cac565b80156104af5780601f10610484576101008083540402835291602001916104af565b820191906000526020600020905b81548152906001019060200180831161049257829003601f168201915b5050505050905090565b6000806104c4610a26565b90506104d1818585610a2e565b600191505092915050565b6000600254905090565b6000806104f1610a26565b90506104fe858285610bf7565b610509858585610c83565b60019150509392505050565b60006012905090565b6000610528610ef9565b905090565b600080610538610a26565b905061055981858561054a8589610917565b6105549190611d0c565b610a2e565b600191505092915050565b61056c611013565b610574611091565b565b610587610581610a26565b826110f4565b50565b6000600560009054906101000a900460ff16905090565b60008060008373ffffffffffffffffffffffffffffffffffffffff1673ffffffffffffffffffffffffffffffffffffffff168152602001908152602001600020549050919050565b6105f1611013565b6105fb60006112c1565b565b61060f82610609610a26565b83610bf7565b61061982826110f4565b5050565b6000610666600660008473ffffffffffffffffffffffffffffffffffffffff1673ffffffffffffffffffffffffffffffffffffffff168152602001908152602001600020611387565b9050919050565b610675611013565b61067d611395565b565b6000600560019054906101000a900473ffffffffffffffffffffffffffffffffffffffff16905090565b6060600480546106b890611cac565b80601f01602080910402602001604051908101604052809291908181526020018280546106e490611cac565b80156107315780601f1061070657610100808354040283529160200191610731565b820191906000526020600020905b81548152906001019060200180831161071457829003601f168201915b5050505050905090565b600080610746610a26565b905060006107548286610917565b905083811015610799576040517f08c379a000000000000000000000000000000000000000000000000000000000815260040161079090611db2565b60405180910390fd5b6107a68286868403610a2e565b60019250505092915050565b6000806107bd610a26565b90506107ca818585610c83565b600191505092915050565b83421115610818576040517f08c379a000000000000000000000000000000000000000000000000000000000815260040161080f90611e1e565b60405180910390fd5b60007f6e71edae12b1b97f4d1f60370fef10105fa2faae0126114a169c64845d6126c98888886108478c6113f8565b8960405160200161085d96959493929190611e3e565b604051602081830303815290604052805190602001209050600061088082611456565b9050600061089082878787611470565b90508973ffffffffffffffffffffffffffffffffffffffff168173ffffffffffffffffffffffffffffffffffffffff1614610900576040517f08c379a00000000000000000000000000000000000000000000000000000000081526004016108f790611eeb565b60405180910390fd5b61090b8a8a8a610a2e565b50505050505050505050565b6000600160008473ffffffffffffffffffffffffffffffffffffffff1673ffffffffffffffffffffffffffffffffffffffff16815260200190815260200160002060008373ffffffffffffffffffffffffffffffffffffffff1673ffffffffffffffffffffffffffffffffffffffff16815260200190815260200160002054905092915050565b6109a6611013565b600073ffffffffffffffffffffffffffffffffffffffff168173ffffffffffffffffffffffffffffffffffffffff1603610a15576040517f08c379a0000000000000000000000000000000000000000000000000000000008152600401610a0c90611f7d565b60405180910390fd5b610a1e816112c1565b50565b505050565b600033905090565b600073ffffffffffffffffffffffffffffffffffffffff168373ffffffffffffffffffffffffffffffffffffffff1603610a9d576040517f08c379a0000000000000000000000000000000000000000000000000000000008152600401610a949061200f565b60405180910390fd5b600073ffffffffffffffffffffffffffffffffffffffff168273ffffffffffffffffffffffffffffffffffffffff1603610b0c576040517f08c379a0000000000000000000000000000000000000000000000000000000008152600401610b03906120a1565b60405180910390fd5b80600160008573ffffffffffffffffffffffffffffffffffffffff1673ffffffffffffffffffffffffffffffffffffffff16815260200190815260200160002060008473ffffffffffffffffffffffffffffffffffffffff1673ffffffffffffffffffffffffffffffffffffffff168152602001908152602001600020819055508173ffffffffffffffffffffffffffffffffffffffff168373ffffffffffffffffffffffffffffffffffffffff167f8c5be1e5ebec7d5bd14f71427d1e84f3dd0314c0f7b2291e5b200ac8c7c3b92583604051610bea91906119e6565b60405180910390a3505050565b6000610c038484610917565b90507fffffffffffffffffffffffffffffffffffffffffffffffffffffffffffffffff8114610c7d5781811015610c6f576040517f08c379a0000000000000000000000000000000000000000000000000000000008152600401610c669061210d565b60405180910390fd5b610c7c8484848403610a2e565b5b50505050565b600073ffffffffffffffffffffffffffffffffffffffff168373ffffffffffffffffffffffffffffffffffffffff1603610cf2576040517f08c379a0000000000000000000000000000000000000000000000000000000008152600401610ce99061219f565b60405180910390fd5b600073ffffffffffffffffffffffffffffffffffffffff168273ffffffffffffffffffffffffffffffffffffffff1603610d61576040517f08c379a0000000000000000000000000000000000000000000000000000000008152600401610d5890612231565b60405180910390fd5b610d6c83838361149b565b60008060008573ffffffffffffffffffffffffffffffffffffffff1673ffffffffffffffffffffffffffffffffffffffff16815260200190815260200160002054905081811015610df2576040517f08c379a0000000000000000000000000000000000000000000000000000000008152600401610de9906122c3565b60405180910390fd5b8181036000808673ffffffffffffffffffffffffffffffffffffffff1673ffffffffffffffffffffffffffffffffffffffff16815260200190815260200160002081905550816000808573ffffffffffffffffffffffffffffffffffffffff1673ffffffffffffffffffffffffffffffffffffffff168152602001908152602001600020600082825401925050819055508273ffffffffffffffffffffffffffffffffffffffff168473ffffffffffffffffffffffffffffffffffffffff167fddf252ad1be2c89b69c2b068fc378daa952ba7f163c4a11628f55a4df523b3ef84604051610ee091906119e6565b60405180910390a3610ef38484846114b3565b50505050565b60007f000000000000000000000000000000000000000000000000000000000000000073ffffffffffffffffffffffffffffffffffffffff163073ffffffffffffffffffffffffffffffffffffffff16148015610f7557507f000000000000000000000000000000000000000000000000000000000000000046145b15610fa2577f00000000000000000000000000000000000000000000000000000000000000009050611010565b61100d7f00000000000000000000000000000000000000000000000000000000000000007f00000000000000000000000000000000000000000000000000000000000000007f00000000000000000000000000000000000000000000000000000000000000006114b8565b90505b90565b61101b610a26565b73ffffffffffffffffffffffffffffffffffffffff1661103961067f565b73ffffffffffffffffffffffffffffffffffffffff161461108f576040517f08c379a00000000000000000000000000000000000000000000000000000000081526004016110869061232f565b60405180910390fd5b565b6110996114f2565b6000600560006101000a81548160ff0219169083151502179055507f5db9ee0a495bf2e6ff9c91a7834c1ba4fdd244a5e8aa4e537bd38aeae4b073aa6110dd610a26565b6040516110ea9190611b28565b60405180910390a1565b600073ffffffffffffffffffffffffffffffffffffffff168273ffffffffffffffffffffffffffffffffffffffff1603611163576040517f08c379a000000000000000000000000000000000000000000000000000000000815260040161115a906123c1565b60405180910390fd5b61116f8260008361149b565b60008060008473ffffffffffffffffffffffffffffffffffffffff1673ffffffffffffffffffffffffffffffffffffffff168152602001908152602001600020549050818110156111f5576040517f08c379a00000000000000000000000000000000000000000000000000000000081526004016111ec90612453565b60405180910390fd5b8181036000808573ffffffffffffffffffffffffffffffffffffffff1673ffffffffffffffffffffffffffffffffffffffff1681526020019081526020016000208190555081600260008282540392505081905550600073ffffffffffffffffffffffffffffffffffffffff168373ffffffffffffffffffffffffffffffffffffffff167fddf252ad1be2c89b69c2b068fc378daa952ba7f163c4a11628f55a4df523b3ef846040516112a891906119e6565b60405180910390a36112bc836000846114b3565b505050565b6000600560019054906101000a900473ffffffffffffffffffffffffffffffffffffffff16905081600560016101000a81548173ffffffffffffffffffffffffffffffffffffffff021916908373ffffffffffffffffffffffffffffffffffffffff1602179055508173ffffffffffffffffffffffffffffffffffffffff168173ffffffffffffffffffffffffffffffffffffffff167f8be0079c531659141344cd1fd0a4f28419497f9722a3daafe3b4186f6b6457e060405160405180910390a35050565b600081600001549050919050565b61139d61153b565b6001600560006101000a81548160ff0219169083151502179055507f62e78cea01bee320cd4e420270b5ea74000d11b0c9f74754ebdbfc544b05a2586113e1610a26565b6040516113ee9190611b28565b60405180910390a1565b600080600660008473ffffffffffffffffffffffffffffffffffffffff1673ffffffffffffffffffffffffffffffffffffffff168152602001908152602001600020905061144581611387565b915061145081611585565b50919050565b6000611469611463610ef9565b8361159b565b9050919050565b6000806000611481878787876115ce565b9150915061148e816116b0565b8192505050949350505050565b6114a361153b565b6114ae838383610a21565b505050565b505050565b600083838346306040516020016114d3959493929190612473565b6040516020818303038152906040528051906020012090509392505050565b6114fa61058a565b611539576040517f08c379a000000000000000000000000000000000000000000000000000000000815260040161153090612512565b60405180910390fd5b565b61154361058a565b15611583576040517f08c379a000000000000000000000000000000000000000000000000000000000815260040161157a9061257e565b60405180910390fd5b565b6001816000016000828254019250508190555050565b600082826040516020016115b0929190612616565b60405160208183030381529060405280519060200120905092915050565b6000807f7fffffffffffffffffffffffffffffff5d576e7357a4501ddfe92f46681b20a08360001c11156116095760006003915091506116a7565b60006001878787876040516000815260200160405260405161162e949392919061264d565b6020604051602081039080840390855afa158015611650573d6000803e3d6000fd5b505050602060405103519050600073ffffffffffffffffffffffffffffffffffffffff168173ffffffffffffffffffffffffffffffffffffffff160361169e576000600192509250506116a7565b80600092509250505b94509492505050565b600060048111156116c4576116c3612692565b5b8160048111156116d7576116d6612692565b5b031561181357600160048111156116f1576116f0612692565b5b81600481111561170457611703612692565b5b03611744576040517f08c379a000000000000000000000000000000000000000000000000000000000815260040161173b9061270d565b60405180910390fd5b6002600481111561175857611757612692565b5b81600481111561176b5761176a612692565b5b036117ab576040517f08c379a00000000000000000000000000000000000000000000000000000000081526004016117a290612779565b60405180910390fd5b600360048111156117bf576117be612692565b5b8160048111156117d2576117d1612692565b5b03611812576040517f08c379a00000000000000000000000000000000000000000000000000000000081526004016118099061280b565b60405180910390fd5b5b50565b600081519050919050565b600082825260208201905092915050565b60005b83811015611850578082015181840152602081019050611835565b60008484015250505050565b6000601f19601f8301169050919050565b600061187882611816565b6118828185611821565b9350611892818560208601611832565b61189b8161185c565b840191505092915050565b600060208201905081810360008301526118c0818461186d565b905092915050565b600080fd5b600073ffffffffffffffffffffffffffffffffffffffff82169050919050565b60006118f8826118cd565b9050919050565b611908816118ed565b811461191357600080fd5b50565b600081359050611925816118ff565b92915050565b6000819050919050565b61193e8161192b565b811461194957600080fd5b50565b60008135905061195b81611935565b92915050565b60008060408385031215611978576119776118c8565b5b600061198685828601611916565b92505060206119978582860161194c565b9150509250929050565b60008115159050919050565b6119b6816119a1565b82525050565b60006020820190506119d160008301846119ad565b92915050565b6119e08161192b565b82525050565b60006020820190506119fb60008301846119d7565b92915050565b600080600060608486031215611a1a57611a196118c8565b5b6000611a2886828701611916565b9350506020611a3986828701611916565b9250506040611a4a8682870161194c565b9150509250925092565b600060ff82169050919050565b611a6a81611a54565b82525050565b6000602082019050611a856000830184611a61565b92915050565b6000819050919050565b611a9e81611a8b565b82525050565b6000602082019050611ab96000830184611a95565b92915050565b600060208284031215611ad557611ad46118c8565b5b6000611ae38482850161194c565b91505092915050565b600060208284031215611b0257611b016118c8565b5b6000611b1084828501611916565b91505092915050565b611b22816118ed565b82525050565b6000602082019050611b3d6000830184611b19565b92915050565b611b4c81611a54565b8114611b5757600080fd5b50565b600081359050611b6981611b43565b92915050565b611b7881611a8b565b8114611b8357600080fd5b50565b600081359050611b9581611b6f565b92915050565b600080600080600080600060e0888a031215611bba57611bb96118c8565b5b6000611bc88a828b01611916565b9750506020611bd98a828b01611916565b9650506040611bea8a828b0161194c565b9550506060611bfb8a828b0161194c565b9450506080611c0c8a828b01611b5a565b93505060a0611c1d8a828b01611b86565b92505060c0611c2e8a828b01611b86565b91505092959891949750929550565b60008060408385031215611c5457611c536118c8565b5b6000611c6285828601611916565b9250506020611c7385828601611916565b9150509250929050565b7f4e487b7100000000000000000000000000000000000000000000000000000000600052602260045260246000fd5b60006002820490506001821680611cc457607f821691505b602082108103611cd757611cd6611c7d565b5b50919050565b7f4e487b7100000000000000000000000000000000000000000000000000000000600052601160045260246000fd5b6000611d178261192b565b9150611d228361192b565b9250828201905080821115611d3a57611d39611cdd565b5b92915050565b7f45524332303a2064656372656173656420616c6c6f77616e63652062656c6f7760008201527f207a65726f000000000000000000000000000000000000000000000000000000602082015250565b6000611d9c602583611821565b9150611da782611d40565b604082019050919050565b60006020820190508181036000830152611dcb81611d8f565b9050919050565b7f45524332305065726d69743a206578706972656420646561646c696e65000000600082015250565b6000611e08601d83611821565b9150611e1382611dd2565b602082019050919050565b60006020820190508181036000830152611e3781611dfb565b9050919050565b600060c082019050611e536000830189611a95565b611e606020830188611b19565b611e6d6040830187611b19565b611e7a60608301866119d7565b611e8760808301856119d7565b611e9460a08301846119d7565b979650505050505050565b7f45524332305065726d69743a20696e76616c6964207369676e61747572650000600082015250565b6000611ed5601e83611821565b9150611ee082611e9f565b602082019050919050565b60006020820190508181036000830152611f0481611ec8565b9050919050565b7f4f776e61626c653a206e6577206f776e657220697320746865207a65726f206160008201527f6464726573730000000000000000000000000000000000000000000000000000602082015250565b6000611f67602683611821565b9150611f7282611f0b565b604082019050919050565b60006020820190508181036000830152611f9681611f5a565b9050919050565b7f45524332303a20617070726f76652066726f6d20746865207a65726f2061646460008201527f7265737300000000000000000000000000000000000000000000000000000000602082015250565b6000611ff9602483611821565b915061200482611f9d565b604082019050919050565b6000602082019050818103600083015261202881611fec565b9050919050565b7f45524332303a20617070726f766520746f20746865207a65726f20616464726560008201527f7373000000000000000000000000000000000000000000000000000000000000602082015250565b600061208b602283611821565b91506120968261202f565b604082019050919050565b600060208201905081810360008301526120ba8161207e565b9050919050565b7f45524332303a20696e73756666696369656e7420616c6c6f77616e6365000000600082015250565b60006120f7601d83611821565b9150612102826120c1565b602082019050919050565b60006020820190508181036000830152612126816120ea565b9050919050565b7f45524332303a207472616e736665722066726f6d20746865207a65726f20616460008201527f6472657373000000000000000000000000000000000000000000000000000000602082015250565b6000612189602583611821565b91506121948261212d565b604082019050919050565b600060208201905081810360008301526121b88161217c565b9050919050565b7f45524332303a207472616e7366657220746f20746865207a65726f206164647260008201527f6573730000000000000000000000000000000000000000000000000000000000602082015250565b600061221b602383611821565b9150612226826121bf565b604082019050919050565b6000602082019050818103600083015261224a8161220e565b9050919050565b7f45524332303a207472616e7366657220616d6f756e742065786365656473206260008201527f616c616e63650000000000000000000000000000000000000000000000000000602082015250565b60006122ad602683611821565b91506122b882612251565b604082019050919050565b600060208201905081810360008301526122dc816122a0565b9050919050565b7f4f776e61626c653a2063616c6c6572206973206e6f7420746865206f776e6572600082015250565b6000612319602083611821565b9150612324826122e3565b602082019050919050565b600060208201905081810360008301526123488161230c565b9050919050565b7f45524332303a206275726e2066726f6d20746865207a65726f2061646472657360008201527f7300000000000000000000000000000000000000000000000000000000000000602082015250565b60006123ab602183611821565b91506123b68261234f565b604082019050919050565b600060208201905081810360008301526123da8161239e565b9050919050565b7f45524332303a206275726e20616d6f756e7420657863656564732062616c616e60008201527f6365000000000000000000000000000000000000000000000000000000000000602082015250565b600061243d602283611821565b9150612448826123e1565b604082019050919050565b6000602082019050818103600083015261246c81612430565b9050919050565b600060a0820190506124886000830188611a95565b6124956020830187611a95565b6124a26040830186611a95565b6124af60608301856119d7565b6124bc6080830184611b19565b9695505050505050565b7f5061757361626c653a206e6f7420706175736564000000000000000000000000600082015250565b60006124fc601483611821565b9150612507826124c6565b602082019050919050565b6000602082019050818103600083015261252b816124ef565b9050919050565b7f5061757361626c653a2070617573656400000000000000000000000000000000600082015250565b6000612568601083611821565b915061257382612532565b602082019050919050565b600060208201905081810360008301526125978161255b565b9050919050565b600081905092915050565b7f1901000000000000000000000000000000000000000000000000000000000000600082015250565b60006125df60028361259e565b91506125ea826125a9565b600282019050919050565b6000819050919050565b61261061260b82611a8b565b6125f5565b82525050565b6000612621826125d2565b915061262d82856125ff565b60208201915061263d82846125ff565b6020820191508190509392505050565b60006080820190506126626000830187611a95565b61266f6020830186611a61565b61267c6040830185611a95565b6126896060830184611a95565b95945050505050565b7f4e487b7100000000000000000000000000000000000000000000000000000000600052602160045260246000fd5b7f45434453413a20696e76616c6964207369676e61747572650000000000000000600082015250565b60006126f7601883611821565b9150612702826126c1565b602082019050919050565b60006020820190508181036000830152612726816126ea565b9050919050565b7f45434453413a20696e76616c6964207369676e6174757265206c656e67746800600082015250565b6000612763601f83611821565b915061276e8261272d565b602082019050919050565b6000602082019050818103600083015261279281612756565b9050919050565b7f45434453413a20696e76616c6964207369676e6174757265202773272076616c60008201527f7565000000000000000000000000000000000000000000000000000000000000602082015250565b60006127f5602283611821565b915061280082612799565b604082019050919050565b60006020820190508181036000830152612824816127e8565b905091905056fea2646970667358221220fb2e65e19d206284c077f83934646364a8a9e47fd2c485ffac67902b19644e8864736f6c63430008110033",
  "linkReferences": {},
  "deployedLinkReferences": {}
}